{
  "contractName": "MusicEditions1155",
  "abi": [
    {
      "inputs": [
        {
          "internalType": "string",
          "name": "baseURI",
          "type": "string"
        }
      ],
      "stateMutability": "nonpayable",
      "type": "constructor"
    },
    {
      "inputs": [
        {
          "internalType": "address",
          "name": "sender",
          "type": "address"
        },
        {
          "internalType": "uint256",
          "name": "balance",
          "type": "uint256"
        },
        {
          "internalType": "uint256",
          "name": "needed",
          "type": "uint256"
        },
        {
          "internalType": "uint256",
          "name": "tokenId",
          "type": "uint256"
        }
      ],
      "name": "ERC1155InsufficientBalance",
      "type": "error"
    },
    {
      "inputs": [
        {
          "internalType": "address",
          "name": "approver",
          "type": "address"
        }
      ],
      "name": "ERC1155InvalidApprover",
      "type": "error"
    },
    {
      "inputs": [
        {
          "internalType": "uint256",
          "name": "idsLength",
          "type": "uint256"
        },
        {
          "internalType": "uint256",
          "name": "valuesLength",
          "type": "uint256"
        }
      ],
      "name": "ERC1155InvalidArrayLength",
      "type": "error"
    },
    {
      "inputs": [
        {
          "internalType": "address",
          "name": "operator",
          "type": "address"
        }
      ],
      "name": "ERC1155InvalidOperator",
      "type": "error"
    },
    {
      "inputs": [
        {
          "internalType": "address",
          "name": "receiver",
          "type": "address"
        }
      ],
      "name": "ERC1155InvalidReceiver",
      "type": "error"
    },
    {
      "inputs": [
        {
          "internalType": "address",
          "name": "sender",
          "type": "address"
        }
      ],
      "name": "ERC1155InvalidSender",
      "type": "error"
    },
    {
      "inputs": [
        {
          "internalType": "address",
          "name": "operator",
          "type": "address"
        },
        {
          "internalType": "address",
          "name": "owner",
          "type": "address"
        }
      ],
      "name": "ERC1155MissingApprovalForAll",
      "type": "error"
    },
    {
      "inputs": [
        {
          "internalType": "address",
          "name": "owner",
          "type": "address"
        }
      ],
      "name": "OwnableInvalidOwner",
      "type": "error"
    },
    {
      "inputs": [
        {
          "internalType": "address",
          "name": "account",
          "type": "address"
        }
      ],
      "name": "OwnableUnauthorizedAccount",
      "type": "error"
    },
    {
      "inputs": [],
      "name": "ReentrancyGuardReentrantCall",
      "type": "error"
    },
    {
      "anonymous": false,
      "inputs": [
        {
          "indexed": true,
          "internalType": "address",
          "name": "account",
          "type": "address"
        },
        {
          "indexed": true,
          "internalType": "address",
          "name": "operator",
          "type": "address"
        },
        {
          "indexed": false,
          "internalType": "bool",
          "name": "approved",
          "type": "bool"
        }
      ],
      "name": "ApprovalForAll",
      "type": "event"
    },
    {
      "anonymous": false,
      "inputs": [
        {
          "indexed": true,
          "internalType": "address",
          "name": "previousOwner",
          "type": "address"
        },
        {
          "indexed": true,
          "internalType": "address",
          "name": "newOwner",
          "type": "address"
        }
      ],
      "name": "OwnershipTransferred",
      "type": "event"
    },
    {
      "anonymous": false,
      "inputs": [
        {
          "indexed": true,
          "internalType": "address",
          "name": "operator",
          "type": "address"
        },
        {
          "indexed": true,
          "internalType": "address",
          "name": "from",
          "type": "address"
        },
        {
          "indexed": true,
          "internalType": "address",
          "name": "to",
          "type": "address"
        },
        {
          "indexed": false,
          "internalType": "uint256[]",
          "name": "ids",
          "type": "uint256[]"
        },
        {
          "indexed": false,
          "internalType": "uint256[]",
          "name": "values",
          "type": "uint256[]"
        }
      ],
      "name": "TransferBatch",
      "type": "event"
    },
    {
      "anonymous": false,
      "inputs": [
        {
          "indexed": true,
          "internalType": "address",
          "name": "operator",
          "type": "address"
        },
        {
          "indexed": true,
          "internalType": "address",
          "name": "from",
          "type": "address"
        },
        {
          "indexed": true,
          "internalType": "address",
          "name": "to",
          "type": "address"
        },
        {
          "indexed": false,
          "internalType": "uint256",
          "name": "id",
          "type": "uint256"
        },
        {
          "indexed": false,
          "internalType": "uint256",
          "name": "value",
          "type": "uint256"
        }
      ],
      "name": "TransferSingle",
      "type": "event"
    },
    {
      "anonymous": false,
      "inputs": [
        {
          "indexed": false,
          "internalType": "string",
          "name": "value",
          "type": "string"
        },
        {
          "indexed": true,
          "internalType": "uint256",
          "name": "id",
          "type": "uint256"
        }
      ],
      "name": "URI",
      "type": "event"
    },
    {
      "inputs": [
        {
          "internalType": "address",
          "name": "account",
          "type": "address"
        },
        {
          "internalType": "uint256",
          "name": "id",
          "type": "uint256"
        }
      ],
      "name": "balanceOf",
      "outputs": [
        {
          "internalType": "uint256",
          "name": "",
          "type": "uint256"
        }
      ],
      "stateMutability": "view",
      "type": "function"
    },
    {
      "inputs": [
        {
          "internalType": "address[]",
          "name": "accounts",
          "type": "address[]"
        },
        {
          "internalType": "uint256[]",
          "name": "ids",
          "type": "uint256[]"
        }
      ],
      "name": "balanceOfBatch",
      "outputs": [
        {
          "internalType": "uint256[]",
          "name": "",
          "type": "uint256[]"
        }
      ],
      "stateMutability": "view",
      "type": "function"
    },
    {
      "inputs": [
        {
          "internalType": "uint256",
          "name": "trackId",
          "type": "uint256"
        }
      ],
      "name": "buy",
      "outputs": [],
      "stateMutability": "payable",
      "type": "function"
    },
    {
      "inputs": [
        {
          "internalType": "uint256",
          "name": "supply",
          "type": "uint256"
        },
        {
          "internalType": "uint256",
          "name": "price",
          "type": "uint256"
        },
        {
          "internalType": "address payable",
          "name": "artist",
          "type": "address"
        },
        {
          "internalType": "uint96",
          "name": "royaltyBps",
          "type": "uint96"
        }
      ],
      "name": "createTrack",
      "outputs": [],
      "stateMutability": "nonpayable",
      "type": "function"
    },
    {
      "inputs": [
        {
          "internalType": "address",
          "name": "account",
          "type": "address"
        },
        {
          "internalType": "address",
          "name": "operator",
          "type": "address"
        }
      ],
      "name": "isApprovedForAll",
      "outputs": [
        {
          "internalType": "bool",
          "name": "",
          "type": "bool"
        }
      ],
      "stateMutability": "view",
      "type": "function"
    },
    {
      "inputs": [],
      "name": "nextTrackId",
      "outputs": [
        {
          "internalType": "uint256",
          "name": "",
          "type": "uint256"
        }
      ],
      "stateMutability": "view",
      "type": "function"
    },
    {
      "inputs": [],
      "name": "owner",
      "outputs": [
        {
          "internalType": "address",
          "name": "",
          "type": "address"
        }
      ],
      "stateMutability": "view",
      "type": "function"
    },
    {
      "inputs": [],
      "name": "renounceOwnership",
      "outputs": [],
      "stateMutability": "nonpayable",
      "type": "function"
    },
    {
      "inputs": [
        {
          "internalType": "uint256",
          "name": "tokenId",
          "type": "uint256"
        },
        {
          "internalType": "uint256",
          "name": "salePrice",
          "type": "uint256"
        }
      ],
      "name": "royaltyInfo",
      "outputs": [
        {
          "internalType": "address",
          "name": "",
          "type": "address"
        },
        {
          "internalType": "uint256",
          "name": "",
          "type": "uint256"
        }
      ],
      "stateMutability": "view",
      "type": "function"
    },
    {
      "inputs": [
        {
          "internalType": "address",
          "name": "from",
          "type": "address"
        },
        {
          "internalType": "address",
          "name": "to",
          "type": "address"
        },
        {
          "internalType": "uint256[]",
          "name": "ids",
          "type": "uint256[]"
        },
        {
          "internalType": "uint256[]",
          "name": "values",
          "type": "uint256[]"
        },
        {
          "internalType": "bytes",
          "name": "data",
          "type": "bytes"
        }
      ],
      "name": "safeBatchTransferFrom",
      "outputs": [],
      "stateMutability": "nonpayable",
      "type": "function"
    },
    {
      "inputs": [
        {
          "internalType": "address",
          "name": "from",
          "type": "address"
        },
        {
          "internalType": "address",
          "name": "to",
          "type": "address"
        },
        {
          "internalType": "uint256",
          "name": "id",
          "type": "uint256"
        },
        {
          "internalType": "uint256",
          "name": "value",
          "type": "uint256"
        },
        {
          "internalType": "bytes",
          "name": "data",
          "type": "bytes"
        }
      ],
      "name": "safeTransferFrom",
      "outputs": [],
      "stateMutability": "nonpayable",
      "type": "function"
    },
    {
      "inputs": [
        {
          "internalType": "address",
          "name": "operator",
          "type": "address"
        },
        {
          "internalType": "bool",
          "name": "approved",
          "type": "bool"
        }
      ],
      "name": "setApprovalForAll",
      "outputs": [],
      "stateMutability": "nonpayable",
      "type": "function"
    },
    {
      "inputs": [
        {
          "internalType": "string",
          "name": "newBase",
          "type": "string"
        }
      ],
      "name": "setBaseURI",
      "outputs": [],
      "stateMutability": "nonpayable",
      "type": "function"
    },
    {
      "inputs": [
        {
          "internalType": "bytes4",
          "name": "interfaceId",
          "type": "bytes4"
        }
      ],
      "name": "supportsInterface",
      "outputs": [
        {
          "internalType": "bool",
          "name": "",
          "type": "bool"
        }
      ],
      "stateMutability": "view",
      "type": "function"
    },
    {
      "inputs": [
        {
          "internalType": "uint256",
          "name": "",
          "type": "uint256"
        }
      ],
      "name": "tracks",
      "outputs": [
        {
          "internalType": "uint256",
          "name": "totalSupply",
          "type": "uint256"
        },
        {
          "internalType": "uint256",
          "name": "minted",
          "type": "uint256"
        },
        {
          "internalType": "uint256",
          "name": "price",
          "type": "uint256"
        },
        {
          "internalType": "address payable",
          "name": "artist",
          "type": "address"
        },
        {
          "internalType": "uint96",
          "name": "royaltyBps",
          "type": "uint96"
        }
      ],
      "stateMutability": "view",
      "type": "function"
    },
    {
      "inputs": [
        {
          "internalType": "address",
          "name": "newOwner",
          "type": "address"
        }
      ],
      "name": "transferOwnership",
      "outputs": [],
      "stateMutability": "nonpayable",
      "type": "function"
    },
    {
      "inputs": [
        {
          "internalType": "uint256",
          "name": "tokenId",
          "type": "uint256"
        }
      ],
      "name": "uri",
      "outputs": [
        {
          "internalType": "string",
          "name": "",
          "type": "string"
        }
      ],
      "stateMutability": "view",
      "type": "function"
    }
  ],
  "bytecode": "0x608060405234801562000010575f80fd5b50d380156200001d575f80fd5b50d280156200002a575f80fd5b50604051620020d3380380620020d38339810160408190526200004d9162000118565b33816200005a81620000a1565b506001600160a01b0381166200008957604051631e4fbdf760e01b81525f600482015260240160405180910390fd5b6200009481620000b3565b505060016004556200033c565b6002620000af828262000270565b5050565b600380546001600160a01b038381166001600160a01b0319831681179093556040519116919082907f8be0079c531659141344cd1fd0a4f28419497f9722a3daafe3b4186f6b6457e0905f90a35050565b634e487b7160e01b5f52604160045260245ffd5b5f60208083850312156200012a575f80fd5b82516001600160401b038082111562000141575f80fd5b818501915085601f83011262000155575f80fd5b8151818111156200016a576200016a62000104565b604051601f8201601f19908116603f0116810190838211818310171562000195576200019562000104565b816040528281528886848701011115620001ad575f80fd5b5f93505b82841015620001d05784840186015181850187015292850192620001b1565b5f86848301015280965050505050505092915050565b600181811c90821680620001fb57607f821691505b6020821081036200021a57634e487b7160e01b5f52602260045260245ffd5b50919050565b601f8211156200026b57805f5260205f20601f840160051c81016020851015620002475750805b601f840160051c820191505b8181101562000268575f815560010162000253565b50505b505050565b81516001600160401b038111156200028c576200028c62000104565b620002a4816200029d8454620001e6565b8462000220565b602080601f831160018114620002da575f8415620002c25750858301515b5f19600386901b1c1916600185901b17855562000334565b5f85815260208120601f198616915b828110156200030a57888601518255948401946001909101908401620002e9565b50858210156200032857878501515f19600388901b60f8161c191681555b505060018460011b0185555b505050505050565b611d89806200034a5f395ff3fe6080604052600436106100f9575f3560e01c8063818816c311610092578063a72024c611610062578063a72024c614610462578063d96a094a1461048f578063e985e9c5146104a2578063f242432a146104d9578063f2fde38b14610510575f80fd5b8063818816c3146103085780638da5cb5b1461033f578063a22cb4651461037e578063a2e34586146103b5575f80fd5b80632eb2c2d6116100cd5780632eb2c2d6146102285780634e1273f41461026157806355f804b3146102a5578063715018a6146102dc575f80fd5b8062fdd58e146100fd57806301ffc9a7146101475780630e89341c1461018e5780632a55205a146101d2575b5f80fd5b348015610108575f80fd5b50d38015610114575f80fd5b50d28015610120575f80fd5b5061013461012f36600461148e565b610547565b6040519081526020015b60405180910390f35b348015610152575f80fd5b50d3801561015e575f80fd5b50d2801561016a575f80fd5b5061017e6101793660046114d6565b61056e565b604051901515815260200161013e565b348015610199575f80fd5b50d380156101a5575f80fd5b50d280156101b1575f80fd5b506101c56101c03660046114f8565b610592565b60405161013e919061155c565b3480156101dd575f80fd5b50d380156101e9575f80fd5b50d280156101f5575f80fd5b5061020961020436600461156e565b6105cd565b604080516001600160a01b03909316835260208301919091520161013e565b348015610233575f80fd5b50d3801561023f575f80fd5b50d2801561024b575f80fd5b5061025f61025a3660046116d5565b610628565b005b34801561026c575f80fd5b50d38015610278575f80fd5b50d28015610284575f80fd5b50610298610293366004611789565b610694565b60405161013e9190611888565b3480156102b0575f80fd5b50d380156102bc575f80fd5b50d280156102c8575f80fd5b5061025f6102d736600461189a565b61075f565b3480156102e7575f80fd5b50d380156102f3575f80fd5b50d280156102ff575f80fd5b5061025f610773565b348015610313575f80fd5b50d3801561031f575f80fd5b50d2801561032b575f80fd5b5061025f61033a3660046118e7565b610786565b34801561034a575f80fd5b50d38015610356575f80fd5b50d28015610362575f80fd5b506003546040516001600160a01b03909116815260200161013e565b348015610389575f80fd5b50d38015610395575f80fd5b50d280156103a1575f80fd5b5061025f6103b0366004611942565b6108f1565b3480156103c0575f80fd5b50d380156103cc575f80fd5b50d280156103d8575f80fd5b506104286103e73660046114f8565b60066020525f90815260409020805460018201546002830154600390930154919290916001600160a01b03811690600160a01b90046001600160601b031685565b604080519586526020860194909452928401919091526001600160a01b031660608301526001600160601b0316608082015260a00161013e565b34801561046d575f80fd5b50d38015610479575f80fd5b50d28015610485575f80fd5b5061013460055481565b61025f61049d3660046114f8565b610900565b3480156104ad575f80fd5b50d380156104b9575f80fd5b50d280156104c5575f80fd5b5061017e6104d4366004611986565b610a6e565b3480156104e4575f80fd5b50d380156104f0575f80fd5b50d280156104fc575f80fd5b5061025f61050b3660046119ca565b610a9b565b34801561051b575f80fd5b50d38015610527575f80fd5b50d28015610533575f80fd5b5061025f610542366004611a3b565b610afa565b5f818152602081815260408083206001600160a01b03861684529091529020545b92915050565b5f6001600160e01b0319821663152a902d60e11b1480610568575061056882610b34565b606061059d82610b83565b6105a683610c15565b6040516020016105b7929190611a66565b6040516020818303038152906040529050919050565b5f828152600660205260408120600381015482919082906127109061060290600160a01b90046001600160601b031687611ab8565b61060c9190611acf565b6003909201546001600160a01b03169350909150509250929050565b336001600160a01b038616811480159061064957506106478682610a6e565b155b1561067f5760405163711bec9160e11b81526001600160a01b038083166004830152871660248201526044015b60405180910390fd5b61068c8686868686610ca5565b505050505050565b606081518351146106c55781518351604051635b05999160e01b815260048101929092526024820152604401610676565b5f835167ffffffffffffffff8111156106e0576106e061158e565b604051908082528060200260200182016040528015610709578160200160208202803683370190505b5090505f5b84518110156107575760208082028601015161073290602080840287010151610547565b82828151811061074457610744611aee565b602090810291909101015260010161070e565b509392505050565b610767610d0a565b61077081610d37565b50565b61077b610d0a565b6107845f610d43565b565b61078e610d0a565b5f84116107d25760405162461bcd60e51b81526020600482015260126024820152710537570706c79206d757374206265203e20360741b6044820152606401610676565b6001600160a01b0382166108195760405162461bcd60e51b815260206004820152600e60248201526d125b9d985b1a5908185c9d1a5cdd60921b6044820152606401610676565b6103e8816001600160601b0316111561085e5760405162461bcd60e51b81526020600482015260076024820152664d61782031302560c81b6044820152606401610676565b600580545f918261086e83611b02565b909155506040805160a0810182529687525f60208089018281528984019889526001600160a01b0397881660608b019081526001600160601b0397881660808c0190815295845260069092529290912097518855905160018801559451600287015593519351909116600160a01b02929091169190911760039092019190915550565b6108fc338383610d94565b5050565b610908610e28565b5f81815260066020526040902080546001820154106109545760405162461bcd60e51b815260206004820152600860248201526714dbdb19081bdd5d60c21b6044820152606401610676565b806002015434146109995760405162461bcd60e51b815260206004820152600f60248201526e496e636f727265637420707269636560881b6044820152606401610676565b6001816001015f8282546109ad9190611b1a565b925050819055506109cf3383600160405180602001604052805f815250610e52565b60038101546040515f916001600160a01b03169034908381818185875af1925050503d805f8114610a1b576040519150601f19603f3d011682016040523d82523d5f602084013e610a20565b606091505b5050905080610a625760405162461bcd60e51b815260206004820152600e60248201526d14185e5b595b9d0819985a5b195960921b6044820152606401610676565b50506107706001600455565b6001600160a01b039182165f90815260016020908152604080832093909416825291909152205460ff1690565b336001600160a01b0386168114801590610abc5750610aba8682610a6e565b155b15610aed5760405163711bec9160e11b81526001600160a01b03808316600483015287166024820152604401610676565b61068c8686868686610ead565b610b02610d0a565b6001600160a01b038116610b2b57604051631e4fbdf760e01b81525f6004820152602401610676565b61077081610d43565b5f6001600160e01b03198216636cdb3d1360e11b1480610b6457506001600160e01b031982166303a24d0760e21b145b8061056857506301ffc9a760e01b6001600160e01b0319831614610568565b606060028054610b9290611b2d565b80601f0160208091040260200160405190810160405280929190818152602001828054610bbe90611b2d565b8015610c095780601f10610be057610100808354040283529160200191610c09565b820191905f5260205f20905b815481529060010190602001808311610bec57829003601f168201915b50505050509050919050565b60605f610c2183610f39565b60010190505f8167ffffffffffffffff811115610c4057610c4061158e565b6040519080825280601f01601f191660200182016040528015610c6a576020820181803683370190505b5090508181016020015b5f19016f181899199a1a9b1b9c1cb0b131b232b360811b600a86061a8153600a8504945084610c7457509392505050565b6001600160a01b038416610cce57604051632bfa23e760e11b81525f6004820152602401610676565b6001600160a01b038516610cf657604051626a0d4560e21b81525f6004820152602401610676565b610d038585858585611010565b5050505050565b6003546001600160a01b031633146107845760405163118cdaa760e01b8152336004820152602401610676565b60026108fc8282611bae565b600380546001600160a01b038381166001600160a01b0319831681179093556040519116919082907f8be0079c531659141344cd1fd0a4f28419497f9722a3daafe3b4186f6b6457e0905f90a35050565b6001600160a01b038216610dbc5760405162ced3e160e81b81525f6004820152602401610676565b6001600160a01b038381165f81815260016020908152604080832094871680845294825291829020805460ff191686151590811790915591519182527f17307eab39ab6107e8899845ad3d59bd9653f200f220920489ca2b5937696c31910160405180910390a3505050565b600260045403610e4b57604051633ee5aeb560e01b815260040160405180910390fd5b6002600455565b6001600160a01b038416610e7b57604051632bfa23e760e11b81525f6004820152602401610676565b6040805160018082526020820186905281830190815260608201859052608082019092529061068c5f87848487611010565b6001600160a01b038416610ed657604051632bfa23e760e11b81525f6004820152602401610676565b6001600160a01b038516610efe57604051626a0d4560e21b81525f6004820152602401610676565b60408051600180825260208201869052818301908152606082018590526080820190925290610f308787848487611010565b50505050505050565b5f8072184f03e93ff9f4daa797ed6e38ed64bf6a1f0160401b8310610f775772184f03e93ff9f4daa797ed6e38ed64bf6a1f0160401b830492506040015b6d04ee2d6d415b85acef81000000008310610fa3576d04ee2d6d415b85acef8100000000830492506020015b662386f26fc100008310610fc157662386f26fc10000830492506010015b6305f5e1008310610fd9576305f5e100830492506008015b6127108310610fed57612710830492506004015b60648310610fff576064830492506002015b600a83106105685760010192915050565b61101c85858585611063565b6001600160a01b03841615610d035782513390600103611055576020848101519084015161104e838989858589611272565b505061068c565b61068c818787878787611393565b80518251146110925781518151604051635b05999160e01b815260048101929092526024820152604401610676565b335f5b8351811015611194576020818102858101820151908501909101516001600160a01b03881615611146575f828152602081815260408083206001600160a01b038c16845290915290205481811015611120576040516303dee4c560e01b81526001600160a01b038a166004820152602481018290526044810183905260648101849052608401610676565b5f838152602081815260408083206001600160a01b038d16845290915290209082900390555b6001600160a01b0387161561118a575f828152602081815260408083206001600160a01b038b16845290915281208054839290611184908490611b1a565b90915550505b5050600101611095565b5082516001036112145760208301515f906020840151909150856001600160a01b0316876001600160a01b0316846001600160a01b03167fc3d58168c5ae7397731d063d5bbf3d657854427343f4c083240f7aacaa2d0f628585604051611205929190918252602082015260400190565b60405180910390a45050610d03565b836001600160a01b0316856001600160a01b0316826001600160a01b03167f4a39dc06d4c0dbc64b70af90fd698a233a518aa5d07e595d983b8c0526c8f7fb8686604051611263929190611c6a565b60405180910390a45050505050565b6001600160a01b0384163b1561068c5760405163f23a6e6160e01b81526001600160a01b0385169063f23a6e61906112b69089908990889088908890600401611c97565b6020604051808303815f875af19250505080156112f0575060408051601f3d908101601f191682019092526112ed91810190611cdb565b60015b611357573d80801561131d576040519150601f19603f3d011682016040523d82523d5f602084013e611322565b606091505b5080515f0361134f57604051632bfa23e760e11b81526001600160a01b0386166004820152602401610676565b805181602001fd5b6001600160e01b0319811663f23a6e6160e01b14610f3057604051632bfa23e760e11b81526001600160a01b0386166004820152602401610676565b6001600160a01b0384163b1561068c5760405163bc197c8160e01b81526001600160a01b0385169063bc197c81906113d79089908990889088908890600401611cf6565b6020604051808303815f875af1925050508015611411575060408051601f3d908101601f1916820190925261140e91810190611cdb565b60015b61143e573d80801561131d576040519150601f19603f3d011682016040523d82523d5f602084013e611322565b6001600160e01b0319811663bc197c8160e01b14610f3057604051632bfa23e760e11b81526001600160a01b0386166004820152602401610676565b6001600160a81b0381168114610770575f80fd5b5f806040838503121561149f575f80fd5b82356114aa8161147a565b6001600160a01b0316946020939093013593505050565b6001600160e01b031981168114610770575f80fd5b5f602082840312156114e6575f80fd5b81356114f1816114c1565b9392505050565b5f60208284031215611508575f80fd5b5035919050565b5f5b83811015611529578181015183820152602001611511565b50505f910152565b5f815180845261154881602086016020860161150f565b601f01601f19169290920160200192915050565b602081525f6114f16020830184611531565b5f806040838503121561157f575f80fd5b50508035926020909101359150565b634e487b7160e01b5f52604160045260245ffd5b604051601f8201601f1916810167ffffffffffffffff811182821017156115cb576115cb61158e565b604052919050565b5f67ffffffffffffffff8211156115ec576115ec61158e565b5060051b60200190565b5f82601f830112611605575f80fd5b8135602061161a611615836115d3565b6115a2565b8083825260208201915060208460051b87010193508684111561163b575f80fd5b602086015b848110156116575780358352918301918301611640565b509695505050505050565b5f67ffffffffffffffff83111561167b5761167b61158e565b61168e601f8401601f19166020016115a2565b90508281528383830111156116a1575f80fd5b828260208301375f602084830101529392505050565b5f82601f8301126116c6575f80fd5b6114f183833560208501611662565b5f805f805f60a086880312156116e9575f80fd5b85356116f48161147a565b6001600160a01b0390811695506020870135906117108261147a565b169350604086013567ffffffffffffffff8082111561172d575f80fd5b61173989838a016115f6565b9450606088013591508082111561174e575f80fd5b61175a89838a016115f6565b9350608088013591508082111561176f575f80fd5b5061177c888289016116b7565b9150509295509295909350565b5f806040838503121561179a575f80fd5b823567ffffffffffffffff808211156117b1575f80fd5b818501915085601f8301126117c4575f80fd5b813560206117d4611615836115d3565b82815260059290921b840181019181810190898411156117f2575f80fd5b948201945b8386101561182257853561180a8161147a565b6001600160a01b0316825294820194908201906117f7565b96505086013592505080821115611837575f80fd5b50611844858286016115f6565b9150509250929050565b5f815180845260208085019450602084015f5b8381101561187d57815187529582019590820190600101611861565b509495945050505050565b602081525f6114f1602083018461184e565b5f602082840312156118aa575f80fd5b813567ffffffffffffffff8111156118c0575f80fd5b8201601f810184136118d0575f80fd5b6118df84823560208401611662565b949350505050565b5f805f80608085870312156118fa575f80fd5b843593506020850135925060408501356119138161147a565b6001600160a01b0316915060608501356001600160601b0381168114611937575f80fd5b939692955090935050565b5f8060408385031215611953575f80fd5b823561195e8161147a565b6001600160a01b031691506020830135801515811461197b575f80fd5b809150509250929050565b5f8060408385031215611997575f80fd5b82356119a28161147a565b6001600160a01b0390811692506020840135906119be8261147a565b92959216935090915050565b5f805f805f60a086880312156119de575f80fd5b85356119e98161147a565b6001600160a01b039081169550602087013590611a058261147a565b1693506040860135925060608601359150608086013567ffffffffffffffff811115611a2f575f80fd5b61177c888289016116b7565b5f60208284031215611a4b575f80fd5b8135611a568161147a565b6001600160a01b03169392505050565b5f8351611a7781846020880161150f565b835190830190611a8b81836020880161150f565b64173539b7b760d91b9101908152600501949350505050565b634e487b7160e01b5f52601160045260245ffd5b808202811582820484141761056857610568611aa4565b5f82611ae957634e487b7160e01b5f52601260045260245ffd5b500490565b634e487b7160e01b5f52603260045260245ffd5b5f60018201611b1357611b13611aa4565b5060010190565b8082018082111561056857610568611aa4565b600181811c90821680611b4157607f821691505b602082108103611b5f57634e487b7160e01b5f52602260045260245ffd5b50919050565b601f821115611ba957805f5260205f20601f840160051c81016020851015611b8a5750805b601f840160051c820191505b81811015610d03575f8155600101611b96565b505050565b815167ffffffffffffffff811115611bc857611bc861158e565b611bdc81611bd68454611b2d565b84611b65565b602080601f831160018114611c0f575f8415611bf85750858301515b5f19600386901b1c1916600185901b17855561068c565b5f85815260208120601f198616915b82811015611c3d57888601518255948401946001909101908401611c1e565b5085821015611c5a57878501515f19600388901b60f8161c191681555b5050505050600190811b01905550565b604081525f611c7c604083018561184e565b8281036020840152611c8e818561184e565b95945050505050565b6001600160a01b03868116825285166020820152604081018490526060810183905260a0608082018190525f90611cd090830184611531565b979650505050505050565b5f60208284031215611ceb575f80fd5b81516114f1816114c1565b6001600160a01b0386811682528516602082015260a0604082018190525f90611d219083018661184e565b8281036060840152611d33818661184e565b90508281036080840152611d478185611531565b9897505050505050505056fea26474726f6e582212201d181ed608b00a168fecb8ee05ecf3f9a9e1842f69b220505247e02dcf4218a864736f6c63430008160033",
  "source": "// SPDX-License-Identifier: MIT\npragma solidity ^0.8.22;\n\nimport \"@openzeppelin/contracts/token/ERC1155/ERC1155.sol\";\nimport \"@openzeppelin/contracts/access/Ownable.sol\";\nimport \"@openzeppelin/contracts/utils/ReentrancyGuard.sol\";\nimport \"@openzeppelin/contracts/utils/Strings.sol\";\nimport \"@openzeppelin/contracts/interfaces/IERC2981.sol\";\n\ncontract MusicEditions1155 is ERC1155, Ownable, ReentrancyGuard, IERC2981 {\n    using Strings for uint256;\n\n    struct Track {\n        uint256 totalSupply;\n        uint256 minted;\n        uint256 price;          // in Sun (1 TRX = 1e6 Sun)\n        address payable artist;\n        uint96 royaltyBps;      // 10000 = 100%\n    }\n\n    uint256 public nextTrackId;\n    mapping(uint256 => Track) public tracks;\n\n    constructor(string memory baseURI) ERC1155(baseURI) Ownable(msg.sender) {}\n\n    // --- Admin ---\n\n    /// @notice Update base metadata URI (e.g. ipfs://CID/)\n    function setBaseURI(string memory newBase) external onlyOwner {\n        _setURI(newBase);\n    }\n\n    // --- Tracks (editions) ---\n\n    function createTrack(\n        uint256 supply,\n        uint256 price,\n        address payable artist,\n        uint96 royaltyBps\n    ) external onlyOwner {\n        require(supply > 0, \"Supply must be > 0\");\n        require(artist != address(0), \"Invalid artist\");\n        require(royaltyBps <= 1000, \"Max 10%\");\n\n        uint256 trackId = nextTrackId++;\n        tracks[trackId] = Track({\n            totalSupply: supply,\n            minted: 0,\n            price: price,\n            artist: artist,\n            royaltyBps: royaltyBps\n        });\n    }\n\n    // --- Primary sale (mint) ---\n\n    /// @notice Buy one copy of the track (send exact price in Sun via {callValue})\n    function buy(uint256 trackId) external payable nonReentrant {\n        Track storage track = tracks[trackId];\n        require(track.minted < track.totalSupply, \"Sold out\");\n        // On Tron, msg.value is set from {callValue}\n        require(msg.value == track.price, \"Incorrect price\");\n\n        track.minted += 1;\n        _mint(msg.sender, trackId, 1, \"\");\n\n        // Pay artist\n        (bool sent, ) = track.artist.call{value: msg.value}(\"\");\n        require(sent, \"Payment failed\");\n    }\n\n    // --- Royalties (EIP-2981) ---\n\n    function royaltyInfo(uint256 tokenId, uint256 salePrice)\n        external\n        view\n        override\n        returns (address, uint256)\n    {\n        Track storage track = tracks[tokenId];\n        uint256 royaltyAmount = (salePrice * track.royaltyBps) / 10000;\n        return (track.artist, royaltyAmount);\n    }\n\n    // --- Metadata ---\n\n    /// @dev token URI = baseURI + \"<id>.json\"\n    function uri(uint256 tokenId) public view override returns (string memory) {\n        return string(abi.encodePacked(super.uri(tokenId), tokenId.toString(), \".json\"));\n    }\n\n    // --- Interface support ---\n\n    function supportsInterface(bytes4 interfaceId)\n        public\n        view\n        override(ERC1155, IERC165)\n        returns (bool)\n    {\n        return\n            interfaceId == type(IERC2981).interfaceId ||\n            super.supportsInterface(interfaceId);\n    }\n}\n\n",
  "sourcePath": "/Users/jonaz/tronmusic-mvp/smart-contracts/contracts/MusicEditions1155.sol",
  "compiler": {
    "name": "solc",
    "version": "0.8.22+commit.5ed3e10f.Emscripten.clang"
  },
  "schemaVersion": "2.0.1",
  "updatedAt": "2025-08-10T09:51:43.123Z"
}